


ARM Macro Assembler    Page 1 


    1 00000000         ;******************** (C) COPYRIGHT 2007 STMicroelectron
                       ics ********************
    2 00000000         ;* File Name          : cortexm3_macro.s
    3 00000000         ;* Author             : MCD Application Team
    4 00000000         ;* Version            : V1.0
    5 00000000         ;* Date               : 10/08/2007
    6 00000000         ;* Description        : Instruction wrappers for special
                        Cortex-M3 instructions.
    7 00000000         ;*******************************************************
                       ************************
    8 00000000         ; THE PRESENT SOFTWARE WHICH IS FOR GUIDANCE ONLY AIMS A
                       T PROVIDING CUSTOMERS
    9 00000000         ; WITH CODING INFORMATION REGARDING THEIR PRODUCTS IN OR
                       DER FOR THEM TO SAVE TIME.
   10 00000000         ; AS A RESULT, STMICROELECTRONICS SHALL NOT BE HELD LIAB
                       LE FOR ANY DIRECT,
   11 00000000         ; INDIRECT OR CONSEQUENTIAL DAMAGES WITH RESPECT TO ANY 
                       CLAIMS ARISING FROM THE
   12 00000000         ; CONTENT OF SUCH SOFTWARE AND/OR THE USE MADE BY CUSTOM
                       ERS OF THE CODING
   13 00000000         ; INFORMATION CONTAINED HEREIN IN CONNECTION WITH THEIR 
                       PRODUCTS.
   14 00000000         ;*******************************************************
                       ************************
   15 00000000         
   16 00000000                 THUMB
   17 00000000                 REQUIRE8
   18 00000000                 PRESERVE8
   19 00000000         
   20 00000000                 AREA             |.text|, CODE, READONLY, ALIGN=
2
   21 00000000         
   22 00000000         ; Exported functions
   23 00000000                 EXPORT           __WFI
   24 00000000                 EXPORT           __WFE
   25 00000000                 EXPORT           __SEV
   26 00000000                 EXPORT           __ISB
   27 00000000                 EXPORT           __DSB
   28 00000000                 EXPORT           __DMB
   29 00000000                 EXPORT           __SVC
   30 00000000                 EXPORT           __MRS_CONTROL
   31 00000000                 EXPORT           __MSR_CONTROL
   32 00000000                 EXPORT           __MRS_PSP
   33 00000000                 EXPORT           __MSR_PSP
   34 00000000                 EXPORT           __MRS_MSP
   35 00000000                 EXPORT           __MSR_MSP
   36 00000000                 EXPORT           __SETPRIMASK
   37 00000000                 EXPORT           __RESETPRIMASK
   38 00000000                 EXPORT           __SETFAULTMASK
   39 00000000                 EXPORT           __RESETFAULTMASK
   40 00000000                 EXPORT           __BASEPRICONFIG
   41 00000000                 EXPORT           __GetBASEPRI
   42 00000000                 EXPORT           __REV_HalfWord
   43 00000000                 EXPORT           __REV_Word
   44 00000000         
   45 00000000         ;*******************************************************
                       ************************
   46 00000000         ; Function Name  : __WFI
   47 00000000         ; Description    : Assembler function for the WFI instru



ARM Macro Assembler    Page 2 


                       ction.
   48 00000000         ; Input          : None
   49 00000000         ; Return         : None
   50 00000000         ;*******************************************************
                       ************************
   51 00000000         __WFI
   52 00000000         
   53 00000000 BF30            WFI
   54 00000002 4770            BX               r14
   55 00000004         
   56 00000004         ;*******************************************************
                       ************************
   57 00000004         ; Function Name  : __WFE
   58 00000004         ; Description    : Assembler function for the WFE instru
                       ction.
   59 00000004         ; Input          : None
   60 00000004         ; Return         : None
   61 00000004         ;*******************************************************
                       ************************
   62 00000004         __WFE
   63 00000004         
   64 00000004 BF20            WFE
   65 00000006 4770            BX               r14
   66 00000008         
   67 00000008         ;*******************************************************
                       ************************
   68 00000008         ; Function Name  : __SEV
   69 00000008         ; Description    : Assembler function for the SEV instru
                       ction.
   70 00000008         ; Input          : None
   71 00000008         ; Return         : None
   72 00000008         ;*******************************************************
                       ************************
   73 00000008         __SEV
   74 00000008         
   75 00000008 BF40            SEV
   76 0000000A 4770            BX               r14
   77 0000000C         
   78 0000000C         ;*******************************************************
                       ************************
   79 0000000C         ; Function Name  : __ISB
   80 0000000C         ; Description    : Assembler function for the ISB instru
                       ction.
   81 0000000C         ; Input          : None
   82 0000000C         ; Return         : None
   83 0000000C         ;*******************************************************
                       ************************
   84 0000000C         __ISB
   85 0000000C         
   86 0000000C F3BF 8F6F       ISB
   87 00000010 4770            BX               r14
   88 00000012         
   89 00000012         ;*******************************************************
                       ************************
   90 00000012         ; Function Name  : __DSB
   91 00000012         ; Description    : Assembler function for the DSB instru
                       ction.
   92 00000012         ; Input          : None
   93 00000012         ; Return         : None



ARM Macro Assembler    Page 3 


   94 00000012         ;*******************************************************
                       ************************
   95 00000012         __DSB
   96 00000012         
   97 00000012 F3BF 8F4F       DSB
   98 00000016 4770            BX               r14
   99 00000018         
  100 00000018         ;*******************************************************
                       ************************
  101 00000018         ; Function Name  : __DMB
  102 00000018         ; Description    : Assembler function for the DMB instru
                       ction.
  103 00000018         ; Input          : None
  104 00000018         ; Return         : None
  105 00000018         ;*******************************************************
                       ************************
  106 00000018         __DMB
  107 00000018         
  108 00000018 F3BF 8F5F       DMB
  109 0000001C 4770            BX               r14
  110 0000001E         
  111 0000001E         ;*******************************************************
                       ************************
  112 0000001E         ; Function Name  : __SVC
  113 0000001E         ; Description    : Assembler function for the SVC instru
                       ction.
  114 0000001E         ; Input          : None
  115 0000001E         ; Return         : None
  116 0000001E         ;*******************************************************
                       ************************
  117 0000001E         __SVC
  118 0000001E         
  119 0000001E DF01            SVC              0x01
  120 00000020 4770            BX               r14
  121 00000022         
  122 00000022         ;*******************************************************
                       ************************
  123 00000022         ; Function Name  : __MRS_CONTROL
  124 00000022         ; Description    : Assembler function for the MRS instru
                       ction.
  125 00000022         ; Input          : None
  126 00000022         ; Return         : - r0 : Cortex-M3 CONTROL register val
                       ue.
  127 00000022         ;*******************************************************
                       ************************
  128 00000022         __MRS_CONTROL
  129 00000022         
  130 00000022 F3EF 8014       MRS              r0, CONTROL
  131 00000026 4770            BX               r14
  132 00000028         
  133 00000028         ;*******************************************************
                       ************************
  134 00000028         ; Function Name  : __MSR_CONTROL
  135 00000028         ; Description    : Assembler function for the MSR instru
                       ction.
  136 00000028         ; Input          : - r0 : Cortex-M3 CONTROL register new
                        value.  
  137 00000028         ; Return         : None
  138 00000028         ;*******************************************************



ARM Macro Assembler    Page 4 


                       ************************
  139 00000028         __MSR_CONTROL
  140 00000028         
  141 00000028 F380 8814       MSR              CONTROL, r0
  142 0000002C F3BF 8F6F       ISB
  143 00000030 4770            BX               r14
  144 00000032         
  145 00000032         ;*******************************************************
                       ************************
  146 00000032         ; Function Name  : __MRS_PSP
  147 00000032         ; Description    : Assembler function for the MRS instru
                       ction.
  148 00000032         ; Input          : None
  149 00000032         ; Return         : - r0 : Process Stack value.
  150 00000032         ;*******************************************************
                       ************************
  151 00000032         __MRS_PSP
  152 00000032         
  153 00000032 F3EF 8009       MRS              r0, PSP
  154 00000036 4770            BX               r14
  155 00000038         
  156 00000038         ;*******************************************************
                       ************************
  157 00000038         ; Function Name  : __MSR_PSP
  158 00000038         ; Description    : Assembler function for the MSR instru
                       ction.
  159 00000038         ; Input          : - r0 : Process Stack new value.  
  160 00000038         ; Return         : None
  161 00000038         ;*******************************************************
                       ************************
  162 00000038         __MSR_PSP
  163 00000038         
  164 00000038 F380 8809       MSR              PSP, r0     ; set Process Stack
                                                             value
  165 0000003C 4770            BX               r14
  166 0000003E         
  167 0000003E         ;*******************************************************
                       ************************
  168 0000003E         ; Function Name  : __MRS_MSP
  169 0000003E         ; Description    : Assembler function for the MRS instru
                       ction.
  170 0000003E         ; Input          : None
  171 0000003E         ; Return         : - r0 : Main Stack value.
  172 0000003E         ;*******************************************************
                       ************************
  173 0000003E         __MRS_MSP
  174 0000003E         
  175 0000003E F3EF 8008       MRS              r0, MSP
  176 00000042 4770            BX               r14
  177 00000044         
  178 00000044         ;*******************************************************
                       ************************
  179 00000044         ; Function Name  : __MSR_MSP
  180 00000044         ; Description    : Assembler function for the MSR instru
                       ction.
  181 00000044         ; Input          : - r0 : Main Stack new value.  
  182 00000044         ; Return         : None
  183 00000044         ;*******************************************************
                       ************************



ARM Macro Assembler    Page 5 


  184 00000044         __MSR_MSP
  185 00000044         
  186 00000044 F380 8808       MSR              MSP, r0     ; set Main Stack va
                                                            lue
  187 00000048 4770            BX               r14
  188 0000004A         
  189 0000004A         ;*******************************************************
                       ************************
  190 0000004A         ; Function Name  : __SETPRIMASK
  191 0000004A         ; Description    : Assembler function to set the PRIMASK
                       .
  192 0000004A         ; Input          : None 
  193 0000004A         ; Return         : None
  194 0000004A         ;*******************************************************
                       ************************
  195 0000004A         __SETPRIMASK
  196 0000004A         
  197 0000004A B672            CPSID            i
  198 0000004C 4770            BX               r14
  199 0000004E         
  200 0000004E         ;*******************************************************
                       ************************
  201 0000004E         ; Function Name  : __RESETPRIMASK
  202 0000004E         ; Description    : Assembler function to reset the PRIMA
                       SK.
  203 0000004E         ; Input          : None 
  204 0000004E         ; Return         : None
  205 0000004E         ;*******************************************************
                       ************************
  206 0000004E         __RESETPRIMASK
  207 0000004E         
  208 0000004E B662            CPSIE            i
  209 00000050 4770            BX               r14
  210 00000052         
  211 00000052         ;*******************************************************
                       ************************
  212 00000052         ; Function Name  : __SETFAULTMASK
  213 00000052         ; Description    : Assembler function to set the FAULTMA
                       SK.
  214 00000052         ; Input          : None 
  215 00000052         ; Return         : None
  216 00000052         ;*******************************************************
                       ************************
  217 00000052         __SETFAULTMASK
  218 00000052         
  219 00000052 B671            CPSID            f
  220 00000054 4770            BX               r14
  221 00000056         
  222 00000056         ;*******************************************************
                       ************************
  223 00000056         ; Function Name  : __RESETFAULTMASK
  224 00000056         ; Description    : Assembler function to reset the FAULT
                       MASK.
  225 00000056         ; Input          : None 
  226 00000056         ; Return         : None
  227 00000056         ;*******************************************************
                       ************************
  228 00000056         __RESETFAULTMASK
  229 00000056         



ARM Macro Assembler    Page 6 


  230 00000056 B661            CPSIE            f
  231 00000058 4770            BX               r14
  232 0000005A         
  233 0000005A         ;*******************************************************
                       ************************
  234 0000005A         ; Function Name  : __BASEPRICONFIG
  235 0000005A         ; Description    : Assembler function to set the Base Pr
                       iority.
  236 0000005A         ; Input          : - r0 : Base Priority new value  
  237 0000005A         ; Return         : None
  238 0000005A         ;*******************************************************
                       ************************
  239 0000005A         __BASEPRICONFIG
  240 0000005A         
  241 0000005A F380 8811       MSR              BASEPRI, r0
  242 0000005E 4770            BX               r14
  243 00000060         
  244 00000060         ;*******************************************************
                       ************************
  245 00000060         ; Function Name  : __GetBASEPRI
  246 00000060         ; Description    : Assembler function to get the Base Pr
                       iority value.
  247 00000060         ; Input          : None 
  248 00000060         ; Return         : - r0 : Base Priority value 
  249 00000060         ;*******************************************************
                       ************************
  250 00000060         __GetBASEPRI
  251 00000060         
  252 00000060 F3EF 8012       MRS              r0, BASEPRI_MAX
  253 00000064 4770            BX               r14
  254 00000066         
  255 00000066         ;*******************************************************
                       ************************
  256 00000066         ; Function Name  : __REV_HalfWord
  257 00000066         ; Description    : Reverses the byte order in HalfWord(1
                       6-bit) input variable.
  258 00000066         ; Input          : - r0 : specifies the input variable
  259 00000066         ; Return         : - r0 : holds tve variable value after
                        byte reversing.
  260 00000066         ;*******************************************************
                       ************************
  261 00000066         __REV_HalfWord
  262 00000066         
  263 00000066 BA40            REV16            r0, r0
  264 00000068 4770            BX               r14
  265 0000006A         
  266 0000006A         ;*******************************************************
                       ************************
  267 0000006A         ; Function Name  : __REV_Word
  268 0000006A         ; Description    : Reverses the byte order in Word(32-bi
                       t) input variable.
  269 0000006A         ; Input          : - r0 : specifies the input variable
  270 0000006A         ; Return         : - r0 : holds tve variable value after
                        byte reversing.
  271 0000006A         ;*******************************************************
                       ************************
  272 0000006A         __REV_Word
  273 0000006A         
  274 0000006A BA00            REV              r0, r0



ARM Macro Assembler    Page 7 


  275 0000006C 4770            BX               r14
  276 0000006E         
  277 0000006E                 END
Command Line: --debug --xref --diag_suppress=9931 --cpu=Cortex-M3 --apcs=interw
ork --depend=.\list\cortexm3_macro.d -o.\list\cortexm3_macro.o -I.\RTE\_FM17550
 -I"D:\Program Files (x86)\KEIL\C51\ARM\CMSIS\5.4.0\CMSIS\Core\Include" -I"D:\P
rogram Files (x86)\KEIL\C51\Keil\STM32F1xx_DFP\1.1.0\Device\Include" --predefin
e="__UVISION_VERSION SETA 526" --predefine="_RTE_ SETA 1" --predefine="STM32F10
X_MD SETA 1" --list=.\cortexm3_macro.lst ..\cortexm3_macro.s



ARM Macro Assembler    Page 1 Alphabetic symbol ordering
Relocatable symbols

.text 00000000

Symbol: .text
   Definitions
      At line 20 in file ..\cortexm3_macro.s
   Uses
      None
Comment: .text unused
__BASEPRICONFIG 0000005A

Symbol: __BASEPRICONFIG
   Definitions
      At line 239 in file ..\cortexm3_macro.s
   Uses
      At line 40 in file ..\cortexm3_macro.s
Comment: __BASEPRICONFIG used once
__DMB 00000018

Symbol: __DMB
   Definitions
      At line 106 in file ..\cortexm3_macro.s
   Uses
      At line 28 in file ..\cortexm3_macro.s
Comment: __DMB used once
__DSB 00000012

Symbol: __DSB
   Definitions
      At line 95 in file ..\cortexm3_macro.s
   Uses
      At line 27 in file ..\cortexm3_macro.s
Comment: __DSB used once
__GetBASEPRI 00000060

Symbol: __GetBASEPRI
   Definitions
      At line 250 in file ..\cortexm3_macro.s
   Uses
      At line 41 in file ..\cortexm3_macro.s
Comment: __GetBASEPRI used once
__ISB 0000000C

Symbol: __ISB
   Definitions
      At line 84 in file ..\cortexm3_macro.s
   Uses
      At line 26 in file ..\cortexm3_macro.s
Comment: __ISB used once
__MRS_CONTROL 00000022

Symbol: __MRS_CONTROL
   Definitions
      At line 128 in file ..\cortexm3_macro.s
   Uses
      At line 30 in file ..\cortexm3_macro.s
Comment: __MRS_CONTROL used once
__MRS_MSP 0000003E

Symbol: __MRS_MSP



ARM Macro Assembler    Page 2 Alphabetic symbol ordering
Relocatable symbols

   Definitions
      At line 173 in file ..\cortexm3_macro.s
   Uses
      At line 34 in file ..\cortexm3_macro.s
Comment: __MRS_MSP used once
__MRS_PSP 00000032

Symbol: __MRS_PSP
   Definitions
      At line 151 in file ..\cortexm3_macro.s
   Uses
      At line 32 in file ..\cortexm3_macro.s
Comment: __MRS_PSP used once
__MSR_CONTROL 00000028

Symbol: __MSR_CONTROL
   Definitions
      At line 139 in file ..\cortexm3_macro.s
   Uses
      At line 31 in file ..\cortexm3_macro.s
Comment: __MSR_CONTROL used once
__MSR_MSP 00000044

Symbol: __MSR_MSP
   Definitions
      At line 184 in file ..\cortexm3_macro.s
   Uses
      At line 35 in file ..\cortexm3_macro.s
Comment: __MSR_MSP used once
__MSR_PSP 00000038

Symbol: __MSR_PSP
   Definitions
      At line 162 in file ..\cortexm3_macro.s
   Uses
      At line 33 in file ..\cortexm3_macro.s
Comment: __MSR_PSP used once
__RESETFAULTMASK 00000056

Symbol: __RESETFAULTMASK
   Definitions
      At line 228 in file ..\cortexm3_macro.s
   Uses
      At line 39 in file ..\cortexm3_macro.s
Comment: __RESETFAULTMASK used once
__RESETPRIMASK 0000004E

Symbol: __RESETPRIMASK
   Definitions
      At line 206 in file ..\cortexm3_macro.s
   Uses
      At line 37 in file ..\cortexm3_macro.s
Comment: __RESETPRIMASK used once
__REV_HalfWord 00000066

Symbol: __REV_HalfWord
   Definitions
      At line 261 in file ..\cortexm3_macro.s
   Uses



ARM Macro Assembler    Page 3 Alphabetic symbol ordering
Relocatable symbols

      At line 42 in file ..\cortexm3_macro.s
Comment: __REV_HalfWord used once
__REV_Word 0000006A

Symbol: __REV_Word
   Definitions
      At line 272 in file ..\cortexm3_macro.s
   Uses
      At line 43 in file ..\cortexm3_macro.s
Comment: __REV_Word used once
__SETFAULTMASK 00000052

Symbol: __SETFAULTMASK
   Definitions
      At line 217 in file ..\cortexm3_macro.s
   Uses
      At line 38 in file ..\cortexm3_macro.s
Comment: __SETFAULTMASK used once
__SETPRIMASK 0000004A

Symbol: __SETPRIMASK
   Definitions
      At line 195 in file ..\cortexm3_macro.s
   Uses
      At line 36 in file ..\cortexm3_macro.s
Comment: __SETPRIMASK used once
__SEV 00000008

Symbol: __SEV
   Definitions
      At line 73 in file ..\cortexm3_macro.s
   Uses
      At line 25 in file ..\cortexm3_macro.s
Comment: __SEV used once
__SVC 0000001E

Symbol: __SVC
   Definitions
      At line 117 in file ..\cortexm3_macro.s
   Uses
      At line 29 in file ..\cortexm3_macro.s
Comment: __SVC used once
__WFE 00000004

Symbol: __WFE
   Definitions
      At line 62 in file ..\cortexm3_macro.s
   Uses
      At line 24 in file ..\cortexm3_macro.s
Comment: __WFE used once
__WFI 00000000

Symbol: __WFI
   Definitions
      At line 51 in file ..\cortexm3_macro.s
   Uses
      At line 23 in file ..\cortexm3_macro.s
Comment: __WFI used once
22 symbols



ARM Macro Assembler    Page 4 Alphabetic symbol ordering
Relocatable symbols

355 symbols in table
